{
  "_format": "hh-sol-artifact-1",
  "contractName": "Exchange",
  "sourceName": "contracts/Exchange.sol",
  "abi": [
    {
      "inputs": [
        {
          "internalType": "address",
          "name": "_Cbiostoken",
          "type": "address"
        }
      ],
      "stateMutability": "nonpayable",
      "type": "constructor"
    },
    {
      "anonymous": false,
      "inputs": [
        {
          "indexed": true,
          "internalType": "address",
          "name": "owner",
          "type": "address"
        },
        {
          "indexed": true,
          "internalType": "address",
          "name": "spender",
          "type": "address"
        },
        {
          "indexed": false,
          "internalType": "uint256",
          "name": "value",
          "type": "uint256"
        }
      ],
      "name": "Approval",
      "type": "event"
    },
    {
      "anonymous": false,
      "inputs": [
        {
          "indexed": true,
          "internalType": "address",
          "name": "from",
          "type": "address"
        },
        {
          "indexed": true,
          "internalType": "address",
          "name": "to",
          "type": "address"
        },
        {
          "indexed": false,
          "internalType": "uint256",
          "name": "value",
          "type": "uint256"
        }
      ],
      "name": "Transfer",
      "type": "event"
    },
    {
      "inputs": [
        {
          "internalType": "uint256",
          "name": "_amount",
          "type": "uint256"
        }
      ],
      "name": "addLiquidity",
      "outputs": [
        {
          "internalType": "uint256",
          "name": "",
          "type": "uint256"
        }
      ],
      "stateMutability": "payable",
      "type": "function"
    },
    {
      "inputs": [
        {
          "internalType": "address",
          "name": "owner",
          "type": "address"
        },
        {
          "internalType": "address",
          "name": "spender",
          "type": "address"
        }
      ],
      "name": "allowance",
      "outputs": [
        {
          "internalType": "uint256",
          "name": "",
          "type": "uint256"
        }
      ],
      "stateMutability": "view",
      "type": "function"
    },
    {
      "inputs": [
        {
          "internalType": "address",
          "name": "spender",
          "type": "address"
        },
        {
          "internalType": "uint256",
          "name": "amount",
          "type": "uint256"
        }
      ],
      "name": "approve",
      "outputs": [
        {
          "internalType": "bool",
          "name": "",
          "type": "bool"
        }
      ],
      "stateMutability": "nonpayable",
      "type": "function"
    },
    {
      "inputs": [
        {
          "internalType": "address",
          "name": "account",
          "type": "address"
        }
      ],
      "name": "balanceOf",
      "outputs": [
        {
          "internalType": "uint256",
          "name": "",
          "type": "uint256"
        }
      ],
      "stateMutability": "view",
      "type": "function"
    },
    {
      "inputs": [],
      "name": "cbiosTokenAddress",
      "outputs": [
        {
          "internalType": "address",
          "name": "",
          "type": "address"
        }
      ],
      "stateMutability": "view",
      "type": "function"
    },
    {
      "inputs": [
        {
          "internalType": "uint256",
          "name": "_tokensSold",
          "type": "uint256"
        },
        {
          "internalType": "uint256",
          "name": "_minEth",
          "type": "uint256"
        }
      ],
      "name": "cbiosTokenToEth",
      "outputs": [],
      "stateMutability": "nonpayable",
      "type": "function"
    },
    {
      "inputs": [],
      "name": "decimals",
      "outputs": [
        {
          "internalType": "uint8",
          "name": "",
          "type": "uint8"
        }
      ],
      "stateMutability": "view",
      "type": "function"
    },
    {
      "inputs": [
        {
          "internalType": "address",
          "name": "spender",
          "type": "address"
        },
        {
          "internalType": "uint256",
          "name": "subtractedValue",
          "type": "uint256"
        }
      ],
      "name": "decreaseAllowance",
      "outputs": [
        {
          "internalType": "bool",
          "name": "",
          "type": "bool"
        }
      ],
      "stateMutability": "nonpayable",
      "type": "function"
    },
    {
      "inputs": [
        {
          "internalType": "uint256",
          "name": "_minTokens",
          "type": "uint256"
        }
      ],
      "name": "ethToCbiosToken",
      "outputs": [],
      "stateMutability": "payable",
      "type": "function"
    },
    {
      "inputs": [
        {
          "internalType": "uint256",
          "name": "inputAmount",
          "type": "uint256"
        },
        {
          "internalType": "uint256",
          "name": "inputReserve",
          "type": "uint256"
        },
        {
          "internalType": "uint256",
          "name": "outputReserve",
          "type": "uint256"
        }
      ],
      "name": "getAmountOfTokens",
      "outputs": [
        {
          "internalType": "uint256",
          "name": "",
          "type": "uint256"
        }
      ],
      "stateMutability": "pure",
      "type": "function"
    },
    {
      "inputs": [],
      "name": "getReserve",
      "outputs": [
        {
          "internalType": "uint256",
          "name": "",
          "type": "uint256"
        }
      ],
      "stateMutability": "view",
      "type": "function"
    },
    {
      "inputs": [
        {
          "internalType": "address",
          "name": "spender",
          "type": "address"
        },
        {
          "internalType": "uint256",
          "name": "addedValue",
          "type": "uint256"
        }
      ],
      "name": "increaseAllowance",
      "outputs": [
        {
          "internalType": "bool",
          "name": "",
          "type": "bool"
        }
      ],
      "stateMutability": "nonpayable",
      "type": "function"
    },
    {
      "inputs": [],
      "name": "name",
      "outputs": [
        {
          "internalType": "string",
          "name": "",
          "type": "string"
        }
      ],
      "stateMutability": "view",
      "type": "function"
    },
    {
      "inputs": [
        {
          "internalType": "uint256",
          "name": "_amount",
          "type": "uint256"
        }
      ],
      "name": "removeLiquidity",
      "outputs": [
        {
          "internalType": "uint256",
          "name": "",
          "type": "uint256"
        },
        {
          "internalType": "uint256",
          "name": "",
          "type": "uint256"
        }
      ],
      "stateMutability": "nonpayable",
      "type": "function"
    },
    {
      "inputs": [],
      "name": "symbol",
      "outputs": [
        {
          "internalType": "string",
          "name": "",
          "type": "string"
        }
      ],
      "stateMutability": "view",
      "type": "function"
    },
    {
      "inputs": [],
      "name": "totalSupply",
      "outputs": [
        {
          "internalType": "uint256",
          "name": "",
          "type": "uint256"
        }
      ],
      "stateMutability": "view",
      "type": "function"
    },
    {
      "inputs": [
        {
          "internalType": "address",
          "name": "to",
          "type": "address"
        },
        {
          "internalType": "uint256",
          "name": "amount",
          "type": "uint256"
        }
      ],
      "name": "transfer",
      "outputs": [
        {
          "internalType": "bool",
          "name": "",
          "type": "bool"
        }
      ],
      "stateMutability": "nonpayable",
      "type": "function"
    },
    {
      "inputs": [
        {
          "internalType": "address",
          "name": "from",
          "type": "address"
        },
        {
          "internalType": "address",
          "name": "to",
          "type": "address"
        },
        {
          "internalType": "uint256",
          "name": "amount",
          "type": "uint256"
        }
      ],
      "name": "transferFrom",
      "outputs": [
        {
          "internalType": "bool",
          "name": "",
          "type": "bool"
        }
      ],
      "stateMutability": "nonpayable",
      "type": "function"
    }
  ],
  "bytecode": "0x60806040523480156200001157600080fd5b5060405162002b8e38038062002b8e8339818101604052810190620000379190620001ed565b6040518060400160405280600581526020017f4342696f730000000000000000000000000000000000000000000000000000008152506040518060400160405280600481526020017f4342494f000000000000000000000000000000000000000000000000000000008152508160039081620000b4919062000499565b508060049081620000c6919062000499565b505050600073ffffffffffffffffffffffffffffffffffffffff168173ffffffffffffffffffffffffffffffffffffffff16036200013b576040517f08c379a0000000000000000000000000000000000000000000000000000000008152600401620001329062000607565b60405180910390fd5b80600560006101000a81548173ffffffffffffffffffffffffffffffffffffffff021916908373ffffffffffffffffffffffffffffffffffffffff1602179055505062000629565b600080fd5b600073ffffffffffffffffffffffffffffffffffffffff82169050919050565b6000620001b58262000188565b9050919050565b620001c781620001a8565b8114620001d357600080fd5b50565b600081519050620001e781620001bc565b92915050565b60006020828403121562000206576200020562000183565b5b60006200021684828501620001d6565b91505092915050565b600081519050919050565b7f4e487b7100000000000000000000000000000000000000000000000000000000600052604160045260246000fd5b7f4e487b7100000000000000000000000000000000000000000000000000000000600052602260045260246000fd5b60006002820490506001821680620002a157607f821691505b602082108103620002b757620002b662000259565b5b50919050565b60008190508160005260206000209050919050565b60006020601f8301049050919050565b600082821b905092915050565b600060088302620003217fffffffffffffffffffffffffffffffffffffffffffffffffffffffffffffffff82620002e2565b6200032d8683620002e2565b95508019841693508086168417925050509392505050565b6000819050919050565b6000819050919050565b60006200037a620003746200036e8462000345565b6200034f565b62000345565b9050919050565b6000819050919050565b620003968362000359565b620003ae620003a58262000381565b848454620002ef565b825550505050565b600090565b620003c5620003b6565b620003d28184846200038b565b505050565b5b81811015620003fa57620003ee600082620003bb565b600181019050620003d8565b5050565b601f82111562000449576200041381620002bd565b6200041e84620002d2565b810160208510156200042e578190505b620004466200043d85620002d2565b830182620003d7565b50505b505050565b600082821c905092915050565b60006200046e600019846008026200044e565b1980831691505092915050565b60006200048983836200045b565b9150826002028217905092915050565b620004a4826200021f565b67ffffffffffffffff811115620004c057620004bf6200022a565b5b620004cc825462000288565b620004d9828285620003fe565b600060209050601f831160018114620005115760008415620004fc578287015190505b6200050885826200047b565b86555062000578565b601f1984166200052186620002bd565b60005b828110156200054b5784890151825560018201915060208501945060208101905062000524565b868310156200056b578489015162000567601f8916826200045b565b8355505b6001600288020188555050505b505050505050565b600082825260208201905092915050565b7f546f6b656e2061646472657373207061737365642069732061206e756c6c206160008201527f6464726573730000000000000000000000000000000000000000000000000000602082015250565b6000620005ef60268362000580565b9150620005fc8262000591565b604082019050919050565b600060208201905081810360008301526200062281620005e0565b9050919050565b61255580620006396000396000f3fe6080604052600436106101095760003560e01c806370a08231116100955780639c8f9f23116100645780639c8f9f231461038b578063a457c2d7146103c9578063a9059cbb14610406578063c68f5eaa14610443578063dd62ed3e1461046e57610109565b806370a08231146102ca5780637386479e14610307578063860865dd1461034457806395d89b411461036057610109565b80632dfb72b3116100dc5780632dfb72b3146101de578063313ce56714610207578063395093511461023257806351c6590a1461026f57806359bf5d391461029f57610109565b806306fdde031461010e578063095ea7b31461013957806318160ddd1461017657806323b872dd146101a1575b600080fd5b34801561011a57600080fd5b506101236104ab565b60405161013091906117c2565b60405180910390f35b34801561014557600080fd5b50610160600480360381019061015b919061187d565b61053d565b60405161016d91906118d8565b60405180910390f35b34801561018257600080fd5b5061018b610560565b6040516101989190611902565b60405180910390f35b3480156101ad57600080fd5b506101c860048036038101906101c3919061191d565b61056a565b6040516101d591906118d8565b60405180910390f35b3480156101ea57600080fd5b5061020560048036038101906102009190611970565b610599565b005b34801561021357600080fd5b5061021c6106e7565b60405161022991906119cc565b60405180910390f35b34801561023e57600080fd5b506102596004803603810190610254919061187d565b6106f0565b60405161026691906118d8565b60405180910390f35b610289600480360381019061028491906119e7565b610727565b6040516102969190611902565b60405180910390f35b3480156102ab57600080fd5b506102b4610925565b6040516102c19190611902565b60405180910390f35b3480156102d657600080fd5b506102f160048036038101906102ec9190611a14565b6109c8565b6040516102fe9190611902565b60405180910390f35b34801561031357600080fd5b5061032e60048036038101906103299190611a41565b610a10565b60405161033b9190611902565b60405180910390f35b61035e600480360381019061035991906119e7565b610ab5565b005b34801561036c57600080fd5b50610375610bc4565b60405161038291906117c2565b60405180910390f35b34801561039757600080fd5b506103b260048036038101906103ad91906119e7565b610c56565b6040516103c0929190611a94565b60405180910390f35b3480156103d557600080fd5b506103f060048036038101906103eb919061187d565b610deb565b6040516103fd91906118d8565b60405180910390f35b34801561041257600080fd5b5061042d6004803603810190610428919061187d565b610e62565b60405161043a91906118d8565b60405180910390f35b34801561044f57600080fd5b50610458610e85565b6040516104659190611acc565b60405180910390f35b34801561047a57600080fd5b5061049560048036038101906104909190611ae7565b610eab565b6040516104a29190611902565b60405180910390f35b6060600380546104ba90611b56565b80601f01602080910402602001604051908101604052809291908181526020018280546104e690611b56565b80156105335780601f1061050857610100808354040283529160200191610533565b820191906000526020600020905b81548152906001019060200180831161051657829003601f168201915b5050505050905090565b600080610548610f32565b9050610555818585610f3a565b600191505092915050565b6000600254905090565b600080610575610f32565b9050610582858285611103565b61058d85858561118f565b60019150509392505050565b60006105a3610925565b905060006105b2848347610a10565b9050828110156105f7576040517f08c379a00000000000000000000000000000000000000000000000000000000081526004016105ee90611bd3565b60405180910390fd5b600560009054906101000a900473ffffffffffffffffffffffffffffffffffffffff1673ffffffffffffffffffffffffffffffffffffffff166323b872dd3330876040518463ffffffff1660e01b815260040161065693929190611bf3565b6020604051808303816000875af1158015610675573d6000803e3d6000fd5b505050506040513d601f19601f820116820180604052508101906106999190611c56565b503373ffffffffffffffffffffffffffffffffffffffff166108fc829081150290604051600060405180830381858888f193505050501580156106e0573d6000803e3d6000fd5b5050505050565b60006012905090565b6000806106fb610f32565b905061071c81858561070d8589610eab565b6107179190611cb2565b610f3a565b600191505092915050565b60008060004790506000610739610925565b90506000600560009054906101000a900473ffffffffffffffffffffffffffffffffffffffff169050600082036107fd578073ffffffffffffffffffffffffffffffffffffffff166323b872dd3330896040518463ffffffff1660e01b81526004016107a793929190611bf3565b6020604051808303816000875af11580156107c6573d6000803e3d6000fd5b505050506040513d601f19601f820116820180604052508101906107ea9190611c56565b508293506107f83385611405565b610919565b6000348461080b9190611ce6565b9050600081843461081c9190611d1a565b6108269190611d8b565b90508088101561086b576040517f08c379a000000000000000000000000000000000000000000000000000000000815260040161086290611e2e565b60405180910390fd5b8273ffffffffffffffffffffffffffffffffffffffff166323b872dd3330846040518463ffffffff1660e01b81526004016108a893929190611bf3565b6020604051808303816000875af11580156108c7573d6000803e3d6000fd5b505050506040513d601f19601f820116820180604052508101906108eb9190611c56565b5081346108f6610560565b6109009190611d1a565b61090a9190611d8b565b95506109163387611405565b50505b83945050505050919050565b6000600560009054906101000a900473ffffffffffffffffffffffffffffffffffffffff1673ffffffffffffffffffffffffffffffffffffffff166370a08231306040518263ffffffff1660e01b81526004016109829190611acc565b602060405180830381865afa15801561099f573d6000803e3d6000fd5b505050506040513d601f19601f820116820180604052508101906109c39190611e63565b905090565b60008060008373ffffffffffffffffffffffffffffffffffffffff1673ffffffffffffffffffffffffffffffffffffffff168152602001908152602001600020549050919050565b60008083118015610a215750600082115b610a60576040517f08c379a0000000000000000000000000000000000000000000000000000000008152600401610a5790611edc565b60405180910390fd5b6000606385610a6f9190611d1a565b905060008382610a7f9190611d1a565b9050600082606487610a919190611d1a565b610a9b9190611cb2565b90508082610aa99190611d8b565b93505050509392505050565b6000610abf610925565b90506000610ad9343447610ad39190611ce6565b84610a10565b905082811015610b1e576040517f08c379a0000000000000000000000000000000000000000000000000000000008152600401610b1590611bd3565b60405180910390fd5b600560009054906101000a900473ffffffffffffffffffffffffffffffffffffffff1673ffffffffffffffffffffffffffffffffffffffff1663a9059cbb33836040518363ffffffff1660e01b8152600401610b7b929190611efc565b6020604051808303816000875af1158015610b9a573d6000803e3d6000fd5b505050506040513d601f19601f82011682018060405250810190610bbe9190611c56565b50505050565b606060048054610bd390611b56565b80601f0160208091040260200160405190810160405280929190818152602001828054610bff90611b56565b8015610c4c5780601f10610c2157610100808354040283529160200191610c4c565b820191906000526020600020905b815481529060010190602001808311610c2f57829003601f168201915b5050505050905090565b60008060008311610c9c576040517f08c379a0000000000000000000000000000000000000000000000000000000008152600401610c9390611f97565b60405180910390fd5b60004790506000610cab610560565b90506000818684610cbc9190611d1a565b610cc69190611d8b565b905060008287610cd4610925565b610cde9190611d1a565b610ce89190611d8b565b9050610cf4338861155b565b3373ffffffffffffffffffffffffffffffffffffffff166108fc839081150290604051600060405180830381858888f19350505050158015610d3a573d6000803e3d6000fd5b50600560009054906101000a900473ffffffffffffffffffffffffffffffffffffffff1673ffffffffffffffffffffffffffffffffffffffff1663a9059cbb33836040518363ffffffff1660e01b8152600401610d98929190611efc565b6020604051808303816000875af1158015610db7573d6000803e3d6000fd5b505050506040513d601f19601f82011682018060405250810190610ddb9190611c56565b5081819550955050505050915091565b600080610df6610f32565b90506000610e048286610eab565b905083811015610e49576040517f08c379a0000000000000000000000000000000000000000000000000000000008152600401610e4090612029565b60405180910390fd5b610e568286868403610f3a565b60019250505092915050565b600080610e6d610f32565b9050610e7a81858561118f565b600191505092915050565b600560009054906101000a900473ffffffffffffffffffffffffffffffffffffffff1681565b6000600160008473ffffffffffffffffffffffffffffffffffffffff1673ffffffffffffffffffffffffffffffffffffffff16815260200190815260200160002060008373ffffffffffffffffffffffffffffffffffffffff1673ffffffffffffffffffffffffffffffffffffffff16815260200190815260200160002054905092915050565b600033905090565b600073ffffffffffffffffffffffffffffffffffffffff168373ffffffffffffffffffffffffffffffffffffffff1603610fa9576040517f08c379a0000000000000000000000000000000000000000000000000000000008152600401610fa0906120bb565b60405180910390fd5b600073ffffffffffffffffffffffffffffffffffffffff168273ffffffffffffffffffffffffffffffffffffffff1603611018576040517f08c379a000000000000000000000000000000000000000000000000000000000815260040161100f9061214d565b60405180910390fd5b80600160008573ffffffffffffffffffffffffffffffffffffffff1673ffffffffffffffffffffffffffffffffffffffff16815260200190815260200160002060008473ffffffffffffffffffffffffffffffffffffffff1673ffffffffffffffffffffffffffffffffffffffff168152602001908152602001600020819055508173ffffffffffffffffffffffffffffffffffffffff168373ffffffffffffffffffffffffffffffffffffffff167f8c5be1e5ebec7d5bd14f71427d1e84f3dd0314c0f7b2291e5b200ac8c7c3b925836040516110f69190611902565b60405180910390a3505050565b600061110f8484610eab565b90507fffffffffffffffffffffffffffffffffffffffffffffffffffffffffffffffff8114611189578181101561117b576040517f08c379a0000000000000000000000000000000000000000000000000000000008152600401611172906121b9565b60405180910390fd5b6111888484848403610f3a565b5b50505050565b600073ffffffffffffffffffffffffffffffffffffffff168373ffffffffffffffffffffffffffffffffffffffff16036111fe576040517f08c379a00000000000000000000000000000000000000000000000000000000081526004016111f59061224b565b60405180910390fd5b600073ffffffffffffffffffffffffffffffffffffffff168273ffffffffffffffffffffffffffffffffffffffff160361126d576040517f08c379a0000000000000000000000000000000000000000000000000000000008152600401611264906122dd565b60405180910390fd5b611278838383611728565b60008060008573ffffffffffffffffffffffffffffffffffffffff1673ffffffffffffffffffffffffffffffffffffffff168152602001908152602001600020549050818110156112fe576040517f08c379a00000000000000000000000000000000000000000000000000000000081526004016112f59061236f565b60405180910390fd5b8181036000808673ffffffffffffffffffffffffffffffffffffffff1673ffffffffffffffffffffffffffffffffffffffff16815260200190815260200160002081905550816000808573ffffffffffffffffffffffffffffffffffffffff1673ffffffffffffffffffffffffffffffffffffffff168152602001908152602001600020600082825401925050819055508273ffffffffffffffffffffffffffffffffffffffff168473ffffffffffffffffffffffffffffffffffffffff167fddf252ad1be2c89b69c2b068fc378daa952ba7f163c4a11628f55a4df523b3ef846040516113ec9190611902565b60405180910390a36113ff84848461172d565b50505050565b600073ffffffffffffffffffffffffffffffffffffffff168273ffffffffffffffffffffffffffffffffffffffff1603611474576040517f08c379a000000000000000000000000000000000000000000000000000000000815260040161146b906123db565b60405180910390fd5b61148060008383611728565b80600260008282546114929190611cb2565b92505081905550806000808473ffffffffffffffffffffffffffffffffffffffff1673ffffffffffffffffffffffffffffffffffffffff168152602001908152602001600020600082825401925050819055508173ffffffffffffffffffffffffffffffffffffffff16600073ffffffffffffffffffffffffffffffffffffffff167fddf252ad1be2c89b69c2b068fc378daa952ba7f163c4a11628f55a4df523b3ef836040516115439190611902565b60405180910390a36115576000838361172d565b5050565b600073ffffffffffffffffffffffffffffffffffffffff168273ffffffffffffffffffffffffffffffffffffffff16036115ca576040517f08c379a00000000000000000000000000000000000000000000000000000000081526004016115c19061246d565b60405180910390fd5b6115d682600083611728565b60008060008473ffffffffffffffffffffffffffffffffffffffff1673ffffffffffffffffffffffffffffffffffffffff1681526020019081526020016000205490508181101561165c576040517f08c379a0000000000000000000000000000000000000000000000000000000008152600401611653906124ff565b60405180910390fd5b8181036000808573ffffffffffffffffffffffffffffffffffffffff1673ffffffffffffffffffffffffffffffffffffffff1681526020019081526020016000208190555081600260008282540392505081905550600073ffffffffffffffffffffffffffffffffffffffff168373ffffffffffffffffffffffffffffffffffffffff167fddf252ad1be2c89b69c2b068fc378daa952ba7f163c4a11628f55a4df523b3ef8460405161170f9190611902565b60405180910390a36117238360008461172d565b505050565b505050565b505050565b600081519050919050565b600082825260208201905092915050565b60005b8381101561176c578082015181840152602081019050611751565b60008484015250505050565b6000601f19601f8301169050919050565b600061179482611732565b61179e818561173d565b93506117ae81856020860161174e565b6117b781611778565b840191505092915050565b600060208201905081810360008301526117dc8184611789565b905092915050565b600080fd5b600073ffffffffffffffffffffffffffffffffffffffff82169050919050565b6000611814826117e9565b9050919050565b61182481611809565b811461182f57600080fd5b50565b6000813590506118418161181b565b92915050565b6000819050919050565b61185a81611847565b811461186557600080fd5b50565b60008135905061187781611851565b92915050565b60008060408385031215611894576118936117e4565b5b60006118a285828601611832565b92505060206118b385828601611868565b9150509250929050565b60008115159050919050565b6118d2816118bd565b82525050565b60006020820190506118ed60008301846118c9565b92915050565b6118fc81611847565b82525050565b600060208201905061191760008301846118f3565b92915050565b600080600060608486031215611936576119356117e4565b5b600061194486828701611832565b935050602061195586828701611832565b925050604061196686828701611868565b9150509250925092565b60008060408385031215611987576119866117e4565b5b600061199585828601611868565b92505060206119a685828601611868565b9150509250929050565b600060ff82169050919050565b6119c6816119b0565b82525050565b60006020820190506119e160008301846119bd565b92915050565b6000602082840312156119fd576119fc6117e4565b5b6000611a0b84828501611868565b91505092915050565b600060208284031215611a2a57611a296117e4565b5b6000611a3884828501611832565b91505092915050565b600080600060608486031215611a5a57611a596117e4565b5b6000611a6886828701611868565b9350506020611a7986828701611868565b9250506040611a8a86828701611868565b9150509250925092565b6000604082019050611aa960008301856118f3565b611ab660208301846118f3565b9392505050565b611ac681611809565b82525050565b6000602082019050611ae16000830184611abd565b92915050565b60008060408385031215611afe57611afd6117e4565b5b6000611b0c85828601611832565b9250506020611b1d85828601611832565b9150509250929050565b7f4e487b7100000000000000000000000000000000000000000000000000000000600052602260045260246000fd5b60006002820490506001821680611b6e57607f821691505b602082108103611b8157611b80611b27565b5b50919050565b7f696e73756666696369656e74206f757470757420616d6f756e74000000000000600082015250565b6000611bbd601a8361173d565b9150611bc882611b87565b602082019050919050565b60006020820190508181036000830152611bec81611bb0565b9050919050565b6000606082019050611c086000830186611abd565b611c156020830185611abd565b611c2260408301846118f3565b949350505050565b611c33816118bd565b8114611c3e57600080fd5b50565b600081519050611c5081611c2a565b92915050565b600060208284031215611c6c57611c6b6117e4565b5b6000611c7a84828501611c41565b91505092915050565b7f4e487b7100000000000000000000000000000000000000000000000000000000600052601160045260246000fd5b6000611cbd82611847565b9150611cc883611847565b9250828201905080821115611ce057611cdf611c83565b5b92915050565b6000611cf182611847565b9150611cfc83611847565b9250828203905081811115611d1457611d13611c83565b5b92915050565b6000611d2582611847565b9150611d3083611847565b9250828202611d3e81611847565b91508282048414831517611d5557611d54611c83565b5b5092915050565b7f4e487b7100000000000000000000000000000000000000000000000000000000600052601260045260246000fd5b6000611d9682611847565b9150611da183611847565b925082611db157611db0611d5c565b5b828204905092915050565b7f416d6f756e74206f6620746f6b656e732073656e74206973206c65737320746860008201527f616e20746865206d696e696d756d20746f6b656e732072657175697265640000602082015250565b6000611e18603e8361173d565b9150611e2382611dbc565b604082019050919050565b60006020820190508181036000830152611e4781611e0b565b9050919050565b600081519050611e5d81611851565b92915050565b600060208284031215611e7957611e786117e4565b5b6000611e8784828501611e4e565b91505092915050565b7f696e76616c696420726573657276657300000000000000000000000000000000600082015250565b6000611ec660108361173d565b9150611ed182611e90565b602082019050919050565b60006020820190508181036000830152611ef581611eb9565b9050919050565b6000604082019050611f116000830185611abd565b611f1e60208301846118f3565b9392505050565b7f5f616d6f756e742073686f756c642062652067726561746572207468616e207a60008201527f65726f0000000000000000000000000000000000000000000000000000000000602082015250565b6000611f8160238361173d565b9150611f8c82611f25565b604082019050919050565b60006020820190508181036000830152611fb081611f74565b9050919050565b7f45524332303a2064656372656173656420616c6c6f77616e63652062656c6f7760008201527f207a65726f000000000000000000000000000000000000000000000000000000602082015250565b600061201360258361173d565b915061201e82611fb7565b604082019050919050565b6000602082019050818103600083015261204281612006565b9050919050565b7f45524332303a20617070726f76652066726f6d20746865207a65726f2061646460008201527f7265737300000000000000000000000000000000000000000000000000000000602082015250565b60006120a560248361173d565b91506120b082612049565b604082019050919050565b600060208201905081810360008301526120d481612098565b9050919050565b7f45524332303a20617070726f766520746f20746865207a65726f20616464726560008201527f7373000000000000000000000000000000000000000000000000000000000000602082015250565b600061213760228361173d565b9150612142826120db565b604082019050919050565b600060208201905081810360008301526121668161212a565b9050919050565b7f45524332303a20696e73756666696369656e7420616c6c6f77616e6365000000600082015250565b60006121a3601d8361173d565b91506121ae8261216d565b602082019050919050565b600060208201905081810360008301526121d281612196565b9050919050565b7f45524332303a207472616e736665722066726f6d20746865207a65726f20616460008201527f6472657373000000000000000000000000000000000000000000000000000000602082015250565b600061223560258361173d565b9150612240826121d9565b604082019050919050565b6000602082019050818103600083015261226481612228565b9050919050565b7f45524332303a207472616e7366657220746f20746865207a65726f206164647260008201527f6573730000000000000000000000000000000000000000000000000000000000602082015250565b60006122c760238361173d565b91506122d28261226b565b604082019050919050565b600060208201905081810360008301526122f6816122ba565b9050919050565b7f45524332303a207472616e7366657220616d6f756e742065786365656473206260008201527f616c616e63650000000000000000000000000000000000000000000000000000602082015250565b600061235960268361173d565b9150612364826122fd565b604082019050919050565b600060208201905081810360008301526123888161234c565b9050919050565b7f45524332303a206d696e7420746f20746865207a65726f206164647265737300600082015250565b60006123c5601f8361173d565b91506123d08261238f565b602082019050919050565b600060208201905081810360008301526123f4816123b8565b9050919050565b7f45524332303a206275726e2066726f6d20746865207a65726f2061646472657360008201527f7300000000000000000000000000000000000000000000000000000000000000602082015250565b600061245760218361173d565b9150612462826123fb565b604082019050919050565b600060208201905081810360008301526124868161244a565b9050919050565b7f45524332303a206275726e20616d6f756e7420657863656564732062616c616e60008201527f6365000000000000000000000000000000000000000000000000000000000000602082015250565b60006124e960228361173d565b91506124f48261248d565b604082019050919050565b60006020820190508181036000830152612518816124dc565b905091905056fea26469706673582212203e30066d0c5c9e56ab71b11a2173fc5326f0a9931850581e5da6f248867ba11f64736f6c63430008110033",
  "linkReferences": {},
  "deployedLinkReferences": {}
}