{
  "_format": "hh-sol-artifact-1",
  "contractName": "RetirerCBIO",
  "sourceName": "contracts/RetireCBIO.sol",
  "abi": [
    {
      "inputs": [
        {
          "internalType": "address",
          "name": "_cbioToken",
          "type": "address"
        }
      ],
      "stateMutability": "nonpayable",
      "type": "constructor"
    },
    {
      "inputs": [
        {
          "internalType": "address",
          "name": "_sender",
          "type": "address"
        },
        {
          "internalType": "uint256",
          "name": "_amount",
          "type": "uint256"
        }
      ],
      "name": "RetireCBIO",
      "outputs": [],
      "stateMutability": "nonpayable",
      "type": "function"
    },
    {
      "inputs": [],
      "name": "addRetirer",
      "outputs": [],
      "stateMutability": "nonpayable",
      "type": "function"
    },
    {
      "inputs": [],
      "name": "cbioToken",
      "outputs": [
        {
          "internalType": "contract ERC20",
          "name": "",
          "type": "address"
        }
      ],
      "stateMutability": "view",
      "type": "function"
    },
    {
      "inputs": [
        {
          "internalType": "address",
          "name": "_address",
          "type": "address"
        }
      ],
      "name": "getCBIOSRetired",
      "outputs": [
        {
          "internalType": "uint256",
          "name": "",
          "type": "uint256"
        }
      ],
      "stateMutability": "view",
      "type": "function"
    },
    {
      "inputs": [
        {
          "internalType": "address",
          "name": "_address",
          "type": "address"
        }
      ],
      "name": "isAddressAllowed",
      "outputs": [
        {
          "internalType": "bool",
          "name": "",
          "type": "bool"
        }
      ],
      "stateMutability": "view",
      "type": "function"
    }
  ],
  "bytecode": "0x608060405273ab53369e91dcfc275744dc0a30bd3e363b2785e0600460006101000a81548173ffffffffffffffffffffffffffffffffffffffff021916908373ffffffffffffffffffffffffffffffffffffffff16021790555034801561006557600080fd5b50604051610f3c380380610f3c833981810160405281019061008791906101ea565b806000806101000a81548173ffffffffffffffffffffffffffffffffffffffff021916908373ffffffffffffffffffffffffffffffffffffffff16021790555033600360006101000a81548173ffffffffffffffffffffffffffffffffffffffff021916908373ffffffffffffffffffffffffffffffffffffffff1602179055506001806000600460009054906101000a900473ffffffffffffffffffffffffffffffffffffffff1673ffffffffffffffffffffffffffffffffffffffff1673ffffffffffffffffffffffffffffffffffffffff16815260200190815260200160002060006101000a81548160ff02191690831515021790555050610217565b600080fd5b600073ffffffffffffffffffffffffffffffffffffffff82169050919050565b60006101b78261018c565b9050919050565b6101c7816101ac565b81146101d257600080fd5b50565b6000815190506101e4816101be565b92915050565b600060208284031215610200576101ff610187565b5b600061020e848285016101d5565b91505092915050565b610d16806102266000396000f3fe608060405234801561001057600080fd5b50600436106100575760003560e01c80633374ccba1461005c5780633ca9dd5e146100665780634d00c736146100965780638fa2a903146100b257806399e1f6f9146100e2575b600080fd5b610064610100565b005b610080600480360381019061007b919061072f565b6101af565b60405161008d9190610775565b60405180910390f35b6100b060048036038101906100ab91906107bc565b6101f8565b005b6100cc60048036038101906100c7919061072f565b610335565b6040516100d99190610817565b60405180910390f35b6100ea61038b565b6040516100f79190610891565b60405180910390f35b600360009054906101000a900473ffffffffffffffffffffffffffffffffffffffff1673ffffffffffffffffffffffffffffffffffffffff163373ffffffffffffffffffffffffffffffffffffffff16036101ad5760018060003373ffffffffffffffffffffffffffffffffffffffff1673ffffffffffffffffffffffffffffffffffffffff16815260200190815260200160002060006101000a81548160ff0219169083151502179055505b565b6000600260008373ffffffffffffffffffffffffffffffffffffffff1673ffffffffffffffffffffffffffffffffffffffff168152602001908152602001600020549050919050565b6000811161023b576040517f08c379a00000000000000000000000000000000000000000000000000000000081526004016102329061092f565b60405180910390fd5b600160003373ffffffffffffffffffffffffffffffffffffffff1673ffffffffffffffffffffffffffffffffffffffff16815260200190815260200160002060009054906101000a900460ff1615610331576102da82308360008054906101000a900473ffffffffffffffffffffffffffffffffffffffff1673ffffffffffffffffffffffffffffffffffffffff166103af909392919063ffffffff16565b80600260008473ffffffffffffffffffffffffffffffffffffffff1673ffffffffffffffffffffffffffffffffffffffff1681526020019081526020016000206000828254610329919061097e565b925050819055505b5050565b6000600160008373ffffffffffffffffffffffffffffffffffffffff1673ffffffffffffffffffffffffffffffffffffffff16815260200190815260200160002060009054906101000a900460ff169050919050565b60008054906101000a900473ffffffffffffffffffffffffffffffffffffffff1681565b610432846323b872dd60e01b8585856040516024016103d0939291906109c1565b604051602081830303815290604052907bffffffffffffffffffffffffffffffffffffffffffffffffffffffff19166020820180517bffffffffffffffffffffffffffffffffffffffffffffffffffffffff8381831617835250505050610438565b50505050565b600061049a826040518060400160405280602081526020017f5361666545524332303a206c6f772d6c6576656c2063616c6c206661696c65648152508573ffffffffffffffffffffffffffffffffffffffff166104ff9092919063ffffffff16565b90506000815111156104fa57808060200190518101906104ba9190610a24565b6104f9576040517f08c379a00000000000000000000000000000000000000000000000000000000081526004016104f090610ac3565b60405180910390fd5b5b505050565b606061050e8484600085610517565b90509392505050565b60608247101561055c576040517f08c379a000000000000000000000000000000000000000000000000000000000815260040161055390610b55565b60405180910390fd5b6000808673ffffffffffffffffffffffffffffffffffffffff1685876040516105859190610be6565b60006040518083038185875af1925050503d80600081146105c2576040519150601f19603f3d011682016040523d82523d6000602084013e6105c7565b606091505b50915091506105d8878383876105e4565b92505050949350505050565b6060831561064657600083510361063e576105fe85610659565b61063d576040517f08c379a000000000000000000000000000000000000000000000000000000000815260040161063490610c49565b60405180910390fd5b5b829050610651565b610650838361067c565b5b949350505050565b6000808273ffffffffffffffffffffffffffffffffffffffff163b119050919050565b60008251111561068f5781518083602001fd5b806040517f08c379a00000000000000000000000000000000000000000000000000000000081526004016106c39190610cbe565b60405180910390fd5b600080fd5b600073ffffffffffffffffffffffffffffffffffffffff82169050919050565b60006106fc826106d1565b9050919050565b61070c816106f1565b811461071757600080fd5b50565b60008135905061072981610703565b92915050565b600060208284031215610745576107446106cc565b5b60006107538482850161071a565b91505092915050565b6000819050919050565b61076f8161075c565b82525050565b600060208201905061078a6000830184610766565b92915050565b6107998161075c565b81146107a457600080fd5b50565b6000813590506107b681610790565b92915050565b600080604083850312156107d3576107d26106cc565b5b60006107e18582860161071a565b92505060206107f2858286016107a7565b9150509250929050565b60008115159050919050565b610811816107fc565b82525050565b600060208201905061082c6000830184610808565b92915050565b6000819050919050565b600061085761085261084d846106d1565b610832565b6106d1565b9050919050565b60006108698261083c565b9050919050565b600061087b8261085e565b9050919050565b61088b81610870565b82525050565b60006020820190506108a66000830184610882565b92915050565b600082825260208201905092915050565b7f5265746972654342494f3a20616d6f756e74206d75737420626520677265617460008201527f6572207468616e20300000000000000000000000000000000000000000000000602082015250565b60006109196029836108ac565b9150610924826108bd565b604082019050919050565b600060208201905081810360008301526109488161090c565b9050919050565b7f4e487b7100000000000000000000000000000000000000000000000000000000600052601160045260246000fd5b60006109898261075c565b91506109948361075c565b92508282019050808211156109ac576109ab61094f565b5b92915050565b6109bb816106f1565b82525050565b60006060820190506109d660008301866109b2565b6109e360208301856109b2565b6109f06040830184610766565b949350505050565b610a01816107fc565b8114610a0c57600080fd5b50565b600081519050610a1e816109f8565b92915050565b600060208284031215610a3a57610a396106cc565b5b6000610a4884828501610a0f565b91505092915050565b7f5361666545524332303a204552433230206f7065726174696f6e20646964206e60008201527f6f74207375636365656400000000000000000000000000000000000000000000602082015250565b6000610aad602a836108ac565b9150610ab882610a51565b604082019050919050565b60006020820190508181036000830152610adc81610aa0565b9050919050565b7f416464726573733a20696e73756666696369656e742062616c616e636520666f60008201527f722063616c6c0000000000000000000000000000000000000000000000000000602082015250565b6000610b3f6026836108ac565b9150610b4a82610ae3565b604082019050919050565b60006020820190508181036000830152610b6e81610b32565b9050919050565b600081519050919050565b600081905092915050565b60005b83811015610ba9578082015181840152602081019050610b8e565b60008484015250505050565b6000610bc082610b75565b610bca8185610b80565b9350610bda818560208601610b8b565b80840191505092915050565b6000610bf28284610bb5565b915081905092915050565b7f416464726573733a2063616c6c20746f206e6f6e2d636f6e7472616374000000600082015250565b6000610c33601d836108ac565b9150610c3e82610bfd565b602082019050919050565b60006020820190508181036000830152610c6281610c26565b9050919050565b600081519050919050565b6000601f19601f8301169050919050565b6000610c9082610c69565b610c9a81856108ac565b9350610caa818560208601610b8b565b610cb381610c74565b840191505092915050565b60006020820190508181036000830152610cd88184610c85565b90509291505056fea2646970667358221220157110c6dddb004f5984fe9d67ddc9ae8346a230ffc558161c27cc07d36d095b64736f6c63430008110033",
  "linkReferences": {},
  "deployedLinkReferences": {}
}