{
  "_format": "hh-sol-artifact-1",
  "contractName": "EmissorCBIO",
  "sourceName": "contracts/EmissorCBIO.sol",
  "abi": [
    {
      "inputs": [
        {
          "internalType": "address",
          "name": "_cbioToken",
          "type": "address"
        }
      ],
      "stateMutability": "nonpayable",
      "type": "constructor"
    },
    {
      "inputs": [],
      "name": "addEmissor",
      "outputs": [],
      "stateMutability": "nonpayable",
      "type": "function"
    },
    {
      "inputs": [],
      "name": "cbioToken",
      "outputs": [
        {
          "internalType": "contract ERC20",
          "name": "",
          "type": "address"
        }
      ],
      "stateMutability": "view",
      "type": "function"
    },
    {
      "inputs": [
        {
          "internalType": "address",
          "name": "_receiver",
          "type": "address"
        },
        {
          "internalType": "uint256",
          "name": "_amount",
          "type": "uint256"
        }
      ],
      "name": "emitCBIO",
      "outputs": [],
      "stateMutability": "nonpayable",
      "type": "function"
    },
    {
      "inputs": [
        {
          "internalType": "address",
          "name": "_address",
          "type": "address"
        }
      ],
      "name": "getCBIOSemited",
      "outputs": [
        {
          "internalType": "uint256",
          "name": "",
          "type": "uint256"
        }
      ],
      "stateMutability": "view",
      "type": "function"
    },
    {
      "inputs": [
        {
          "internalType": "address",
          "name": "_address",
          "type": "address"
        }
      ],
      "name": "isAddressAllowed",
      "outputs": [
        {
          "internalType": "bool",
          "name": "",
          "type": "bool"
        }
      ],
      "stateMutability": "view",
      "type": "function"
    }
  ],
  "bytecode": "0x608060405273ab53369e91dcfc275744dc0a30bd3e363b2785e0600460006101000a81548173ffffffffffffffffffffffffffffffffffffffff021916908373ffffffffffffffffffffffffffffffffffffffff16021790555034801561006557600080fd5b506040516200111c3803806200111c833981810160405281019061008991906101ec565b806000806101000a81548173ffffffffffffffffffffffffffffffffffffffff021916908373ffffffffffffffffffffffffffffffffffffffff16021790555033600360006101000a81548173ffffffffffffffffffffffffffffffffffffffff021916908373ffffffffffffffffffffffffffffffffffffffff1602179055506001806000600460009054906101000a900473ffffffffffffffffffffffffffffffffffffffff1673ffffffffffffffffffffffffffffffffffffffff1673ffffffffffffffffffffffffffffffffffffffff16815260200190815260200160002060006101000a81548160ff02191690831515021790555050610219565b600080fd5b600073ffffffffffffffffffffffffffffffffffffffff82169050919050565b60006101b98261018e565b9050919050565b6101c9816101ae565b81146101d457600080fd5b50565b6000815190506101e6816101c0565b92915050565b60006020828403121561020257610201610189565b5b6000610210848285016101d7565b91505092915050565b610ef380620002296000396000f3fe608060405234801561001057600080fd5b50600436106100575760003560e01c806325e057501461005c5780633abf1a941461008c578063736001f4146100965780638fa2a903146100b257806399e1f6f9146100e2575b600080fd5b61007660048036038101906100719190610805565b610100565b604051610083919061084b565b60405180910390f35b610094610149565b005b6100b060048036038101906100ab9190610892565b6101f8565b005b6100cc60048036038101906100c79190610805565b61040e565b6040516100d991906108ed565b60405180910390f35b6100ea610464565b6040516100f79190610967565b60405180910390f35b6000600260008373ffffffffffffffffffffffffffffffffffffffff1673ffffffffffffffffffffffffffffffffffffffff168152602001908152602001600020549050919050565b600360009054906101000a900473ffffffffffffffffffffffffffffffffffffffff1673ffffffffffffffffffffffffffffffffffffffff163373ffffffffffffffffffffffffffffffffffffffff16036101f65760018060003373ffffffffffffffffffffffffffffffffffffffff1673ffffffffffffffffffffffffffffffffffffffff16815260200190815260200160002060006101000a81548160ff0219169083151502179055505b565b6000811161023b576040517f08c379a000000000000000000000000000000000000000000000000000000000815260040161023290610a05565b60405180910390fd5b60008054906101000a900473ffffffffffffffffffffffffffffffffffffffff1673ffffffffffffffffffffffffffffffffffffffff166370a08231306040518263ffffffff1660e01b81526004016102949190610a34565b602060405180830381865afa1580156102b1573d6000803e3d6000fd5b505050506040513d601f19601f820116820180604052508101906102d59190610a64565b8110610316576040517f08c379a000000000000000000000000000000000000000000000000000000000815260040161030d90610b29565b60405180910390fd5b600160003373ffffffffffffffffffffffffffffffffffffffff1673ffffffffffffffffffffffffffffffffffffffff16815260200190815260200160002060009054906101000a900460ff161561040a576103b3828260008054906101000a900473ffffffffffffffffffffffffffffffffffffffff1673ffffffffffffffffffffffffffffffffffffffff166104889092919063ffffffff16565b80600260008473ffffffffffffffffffffffffffffffffffffffff1673ffffffffffffffffffffffffffffffffffffffff16815260200190815260200160002060008282546104029190610b78565b925050819055505b5050565b6000600160008373ffffffffffffffffffffffffffffffffffffffff1673ffffffffffffffffffffffffffffffffffffffff16815260200190815260200160002060009054906101000a900460ff169050919050565b60008054906101000a900473ffffffffffffffffffffffffffffffffffffffff1681565b6105098363a9059cbb60e01b84846040516024016104a7929190610bac565b604051602081830303815290604052907bffffffffffffffffffffffffffffffffffffffffffffffffffffffff19166020820180517bffffffffffffffffffffffffffffffffffffffffffffffffffffffff838183161783525050505061050e565b505050565b6000610570826040518060400160405280602081526020017f5361666545524332303a206c6f772d6c6576656c2063616c6c206661696c65648152508573ffffffffffffffffffffffffffffffffffffffff166105d59092919063ffffffff16565b90506000815111156105d057808060200190518101906105909190610c01565b6105cf576040517f08c379a00000000000000000000000000000000000000000000000000000000081526004016105c690610ca0565b60405180910390fd5b5b505050565b60606105e484846000856105ed565b90509392505050565b606082471015610632576040517f08c379a000000000000000000000000000000000000000000000000000000000815260040161062990610d32565b60405180910390fd5b6000808673ffffffffffffffffffffffffffffffffffffffff16858760405161065b9190610dc3565b60006040518083038185875af1925050503d8060008114610698576040519150601f19603f3d011682016040523d82523d6000602084013e61069d565b606091505b50915091506106ae878383876106ba565b92505050949350505050565b6060831561071c576000835103610714576106d48561072f565b610713576040517f08c379a000000000000000000000000000000000000000000000000000000000815260040161070a90610e26565b60405180910390fd5b5b829050610727565b6107268383610752565b5b949350505050565b6000808273ffffffffffffffffffffffffffffffffffffffff163b119050919050565b6000825111156107655781518083602001fd5b806040517f08c379a00000000000000000000000000000000000000000000000000000000081526004016107999190610e9b565b60405180910390fd5b600080fd5b600073ffffffffffffffffffffffffffffffffffffffff82169050919050565b60006107d2826107a7565b9050919050565b6107e2816107c7565b81146107ed57600080fd5b50565b6000813590506107ff816107d9565b92915050565b60006020828403121561081b5761081a6107a2565b5b6000610829848285016107f0565b91505092915050565b6000819050919050565b61084581610832565b82525050565b6000602082019050610860600083018461083c565b92915050565b61086f81610832565b811461087a57600080fd5b50565b60008135905061088c81610866565b92915050565b600080604083850312156108a9576108a86107a2565b5b60006108b7858286016107f0565b92505060206108c88582860161087d565b9150509250929050565b60008115159050919050565b6108e7816108d2565b82525050565b600060208201905061090260008301846108de565b92915050565b6000819050919050565b600061092d610928610923846107a7565b610908565b6107a7565b9050919050565b600061093f82610912565b9050919050565b600061095182610934565b9050919050565b61096181610946565b82525050565b600060208201905061097c6000830184610958565b92915050565b600082825260208201905092915050565b7f456d6973736f724342494f3a20616d6f756e74206d757374206265206772656160008201527f746572207468616e203000000000000000000000000000000000000000000000602082015250565b60006109ef602a83610982565b91506109fa82610993565b604082019050919050565b60006020820190508181036000830152610a1e816109e2565b9050919050565b610a2e816107c7565b82525050565b6000602082019050610a496000830184610a25565b92915050565b600081519050610a5e81610866565b92915050565b600060208284031215610a7a57610a796107a2565b5b6000610a8884828501610a4f565b91505092915050565b7f456d6973736f724342494f3a20616d6f756e74206d757374206265206c65737360008201527f207468616e207468652062616c616e6365206f662074686520636f6e7472616360208201527f7400000000000000000000000000000000000000000000000000000000000000604082015250565b6000610b13604183610982565b9150610b1e82610a91565b606082019050919050565b60006020820190508181036000830152610b4281610b06565b9050919050565b7f4e487b7100000000000000000000000000000000000000000000000000000000600052601160045260246000fd5b6000610b8382610832565b9150610b8e83610832565b9250828201905080821115610ba657610ba5610b49565b5b92915050565b6000604082019050610bc16000830185610a25565b610bce602083018461083c565b9392505050565b610bde816108d2565b8114610be957600080fd5b50565b600081519050610bfb81610bd5565b92915050565b600060208284031215610c1757610c166107a2565b5b6000610c2584828501610bec565b91505092915050565b7f5361666545524332303a204552433230206f7065726174696f6e20646964206e60008201527f6f74207375636365656400000000000000000000000000000000000000000000602082015250565b6000610c8a602a83610982565b9150610c9582610c2e565b604082019050919050565b60006020820190508181036000830152610cb981610c7d565b9050919050565b7f416464726573733a20696e73756666696369656e742062616c616e636520666f60008201527f722063616c6c0000000000000000000000000000000000000000000000000000602082015250565b6000610d1c602683610982565b9150610d2782610cc0565b604082019050919050565b60006020820190508181036000830152610d4b81610d0f565b9050919050565b600081519050919050565b600081905092915050565b60005b83811015610d86578082015181840152602081019050610d6b565b60008484015250505050565b6000610d9d82610d52565b610da78185610d5d565b9350610db7818560208601610d68565b80840191505092915050565b6000610dcf8284610d92565b915081905092915050565b7f416464726573733a2063616c6c20746f206e6f6e2d636f6e7472616374000000600082015250565b6000610e10601d83610982565b9150610e1b82610dda565b602082019050919050565b60006020820190508181036000830152610e3f81610e03565b9050919050565b600081519050919050565b6000601f19601f8301169050919050565b6000610e6d82610e46565b610e778185610982565b9350610e87818560208601610d68565b610e9081610e51565b840191505092915050565b60006020820190508181036000830152610eb58184610e62565b90509291505056fea26469706673582212200c6713320b9f99d75eb7755c9358600046afd1574da9a67d127fe4fec58ed33864736f6c63430008110033",
  "linkReferences": {},
  "deployedLinkReferences": {}
}